{
  "_format": "hh-sol-artifact-1",
  "contractName": "CarRentalSystem",
  "sourceName": "contracts/CarRentalSystem.sol",
  "abi": [
    {
      "inputs": [],
      "stateMutability": "nonpayable",
      "type": "constructor"
    },
    {
      "inputs": [
        {
          "internalType": "address",
          "name": "sender",
          "type": "address"
        },
        {
          "internalType": "uint256",
          "name": "tokenId",
          "type": "uint256"
        },
        {
          "internalType": "address",
          "name": "owner",
          "type": "address"
        }
      ],
      "name": "ERC721IncorrectOwner",
      "type": "error"
    },
    {
      "inputs": [
        {
          "internalType": "address",
          "name": "operator",
          "type": "address"
        },
        {
          "internalType": "uint256",
          "name": "tokenId",
          "type": "uint256"
        }
      ],
      "name": "ERC721InsufficientApproval",
      "type": "error"
    },
    {
      "inputs": [
        {
          "internalType": "address",
          "name": "approver",
          "type": "address"
        }
      ],
      "name": "ERC721InvalidApprover",
      "type": "error"
    },
    {
      "inputs": [
        {
          "internalType": "address",
          "name": "operator",
          "type": "address"
        }
      ],
      "name": "ERC721InvalidOperator",
      "type": "error"
    },
    {
      "inputs": [
        {
          "internalType": "address",
          "name": "owner",
          "type": "address"
        }
      ],
      "name": "ERC721InvalidOwner",
      "type": "error"
    },
    {
      "inputs": [
        {
          "internalType": "address",
          "name": "receiver",
          "type": "address"
        }
      ],
      "name": "ERC721InvalidReceiver",
      "type": "error"
    },
    {
      "inputs": [
        {
          "internalType": "address",
          "name": "sender",
          "type": "address"
        }
      ],
      "name": "ERC721InvalidSender",
      "type": "error"
    },
    {
      "inputs": [
        {
          "internalType": "uint256",
          "name": "tokenId",
          "type": "uint256"
        }
      ],
      "name": "ERC721NonexistentToken",
      "type": "error"
    },
    {
      "anonymous": false,
      "inputs": [
        {
          "indexed": true,
          "internalType": "address",
          "name": "owner",
          "type": "address"
        },
        {
          "indexed": true,
          "internalType": "address",
          "name": "approved",
          "type": "address"
        },
        {
          "indexed": true,
          "internalType": "uint256",
          "name": "tokenId",
          "type": "uint256"
        }
      ],
      "name": "Approval",
      "type": "event"
    },
    {
      "anonymous": false,
      "inputs": [
        {
          "indexed": true,
          "internalType": "address",
          "name": "owner",
          "type": "address"
        },
        {
          "indexed": true,
          "internalType": "address",
          "name": "operator",
          "type": "address"
        },
        {
          "indexed": false,
          "internalType": "bool",
          "name": "approved",
          "type": "bool"
        }
      ],
      "name": "ApprovalForAll",
      "type": "event"
    },
    {
      "anonymous": false,
      "inputs": [
        {
          "indexed": false,
          "internalType": "uint256[]",
          "name": "",
          "type": "uint256[]"
        }
      ],
      "name": "CarAvailable",
      "type": "event"
    },
    {
      "anonymous": false,
      "inputs": [
        {
          "indexed": false,
          "internalType": "uint256",
          "name": "carTokenId",
          "type": "uint256"
        }
      ],
      "name": "CarIssued",
      "type": "event"
    },
    {
      "anonymous": false,
      "inputs": [
        {
          "indexed": false,
          "internalType": "uint256[]",
          "name": "",
          "type": "uint256[]"
        }
      ],
      "name": "CarOwned",
      "type": "event"
    },
    {
      "anonymous": false,
      "inputs": [
        {
          "indexed": false,
          "internalType": "uint256",
          "name": "carTokenId",
          "type": "uint256"
        },
        {
          "indexed": false,
          "internalType": "address",
          "name": "renter",
          "type": "address"
        },
        {
          "indexed": false,
          "internalType": "uint256",
          "name": "startTime",
          "type": "uint256"
        },
        {
          "indexed": false,
          "internalType": "uint256",
          "name": "duration",
          "type": "uint256"
        }
      ],
      "name": "CarRented",
      "type": "event"
    },
    {
      "anonymous": false,
      "inputs": [
        {
          "indexed": true,
          "internalType": "address",
          "name": "from",
          "type": "address"
        },
        {
          "indexed": true,
          "internalType": "address",
          "name": "to",
          "type": "address"
        },
        {
          "indexed": true,
          "internalType": "uint256",
          "name": "tokenId",
          "type": "uint256"
        }
      ],
      "name": "Transfer",
      "type": "event"
    },
    {
      "anonymous": false,
      "inputs": [
        {
          "indexed": true,
          "internalType": "uint256",
          "name": "tokenId",
          "type": "uint256"
        },
        {
          "indexed": true,
          "internalType": "address",
          "name": "user",
          "type": "address"
        },
        {
          "indexed": false,
          "internalType": "uint64",
          "name": "expires",
          "type": "uint64"
        }
      ],
      "name": "UpdateUser",
      "type": "event"
    },
    {
      "inputs": [
        {
          "internalType": "address",
          "name": "to",
          "type": "address"
        },
        {
          "internalType": "uint256",
          "name": "tokenId",
          "type": "uint256"
        }
      ],
      "name": "approve",
      "outputs": [],
      "stateMutability": "nonpayable",
      "type": "function"
    },
    {
      "inputs": [
        {
          "internalType": "address",
          "name": "owner",
          "type": "address"
        }
      ],
      "name": "balanceOf",
      "outputs": [
        {
          "internalType": "uint256",
          "name": "",
          "type": "uint256"
        }
      ],
      "stateMutability": "view",
      "type": "function"
    },
    {
      "inputs": [
        {
          "internalType": "uint256",
          "name": "tokenId",
          "type": "uint256"
        }
      ],
      "name": "getApproved",
      "outputs": [
        {
          "internalType": "address",
          "name": "",
          "type": "address"
        }
      ],
      "stateMutability": "view",
      "type": "function"
    },
    {
      "inputs": [],
      "name": "getAvailableCars",
      "outputs": [
        {
          "internalType": "uint256[]",
          "name": "",
          "type": "uint256[]"
        }
      ],
      "stateMutability": "payable",
      "type": "function"
    },
    {
      "inputs": [
        {
          "internalType": "uint256",
          "name": "carId",
          "type": "uint256"
        }
      ],
      "name": "getCarInfo",
      "outputs": [
        {
          "internalType": "address",
          "name": "owner",
          "type": "address"
        },
        {
          "internalType": "address",
          "name": "renter",
          "type": "address"
        }
      ],
      "stateMutability": "payable",
      "type": "function"
    },
    {
      "inputs": [
        {
          "internalType": "uint256",
          "name": "carId",
          "type": "uint256"
        }
      ],
      "name": "getCarOwner",
      "outputs": [
        {
          "internalType": "address",
          "name": "owner",
          "type": "address"
        }
      ],
      "stateMutability": "view",
      "type": "function"
    },
    {
      "inputs": [],
      "name": "getCarPrice",
      "outputs": [
        {
          "internalType": "uint256",
          "name": "price",
          "type": "uint256"
        }
      ],
      "stateMutability": "view",
      "type": "function"
    },
    {
      "inputs": [
        {
          "internalType": "uint256",
          "name": "carId",
          "type": "uint256"
        }
      ],
      "name": "getCarUser",
      "outputs": [
        {
          "internalType": "address",
          "name": "user",
          "type": "address"
        }
      ],
      "stateMutability": "view",
      "type": "function"
    },
    {
      "inputs": [],
      "name": "getMyCars",
      "outputs": [
        {
          "internalType": "uint256[]",
          "name": "list",
          "type": "uint256[]"
        }
      ],
      "stateMutability": "payable",
      "type": "function"
    },
    {
      "inputs": [],
      "name": "getRentPrice",
      "outputs": [
        {
          "internalType": "uint256",
          "name": "price",
          "type": "uint256"
        }
      ],
      "stateMutability": "view",
      "type": "function"
    },
    {
      "inputs": [
        {
          "internalType": "address",
          "name": "owner",
          "type": "address"
        },
        {
          "internalType": "address",
          "name": "operator",
          "type": "address"
        }
      ],
      "name": "isApprovedForAll",
      "outputs": [
        {
          "internalType": "bool",
          "name": "",
          "type": "bool"
        }
      ],
      "stateMutability": "view",
      "type": "function"
    },
    {
      "inputs": [],
      "name": "issueCarNFT",
      "outputs": [],
      "stateMutability": "payable",
      "type": "function"
    },
    {
      "inputs": [],
      "name": "myERC20",
      "outputs": [
        {
          "internalType": "contract MyERC20",
          "name": "",
          "type": "address"
        }
      ],
      "stateMutability": "view",
      "type": "function"
    },
    {
      "inputs": [],
      "name": "name",
      "outputs": [
        {
          "internalType": "string",
          "name": "",
          "type": "string"
        }
      ],
      "stateMutability": "view",
      "type": "function"
    },
    {
      "inputs": [
        {
          "internalType": "uint256",
          "name": "tokenId",
          "type": "uint256"
        }
      ],
      "name": "ownerOf",
      "outputs": [
        {
          "internalType": "address",
          "name": "",
          "type": "address"
        }
      ],
      "stateMutability": "view",
      "type": "function"
    },
    {
      "inputs": [
        {
          "internalType": "uint256",
          "name": "carId",
          "type": "uint256"
        },
        {
          "internalType": "uint256",
          "name": "rentDuration",
          "type": "uint256"
        }
      ],
      "name": "rentCar",
      "outputs": [],
      "stateMutability": "payable",
      "type": "function"
    },
    {
      "inputs": [
        {
          "internalType": "address",
          "name": "from",
          "type": "address"
        },
        {
          "internalType": "address",
          "name": "to",
          "type": "address"
        },
        {
          "internalType": "uint256",
          "name": "tokenId",
          "type": "uint256"
        }
      ],
      "name": "safeTransferFrom",
      "outputs": [],
      "stateMutability": "nonpayable",
      "type": "function"
    },
    {
      "inputs": [
        {
          "internalType": "address",
          "name": "from",
          "type": "address"
        },
        {
          "internalType": "address",
          "name": "to",
          "type": "address"
        },
        {
          "internalType": "uint256",
          "name": "tokenId",
          "type": "uint256"
        },
        {
          "internalType": "bytes",
          "name": "data",
          "type": "bytes"
        }
      ],
      "name": "safeTransferFrom",
      "outputs": [],
      "stateMutability": "nonpayable",
      "type": "function"
    },
    {
      "inputs": [
        {
          "internalType": "address",
          "name": "operator",
          "type": "address"
        },
        {
          "internalType": "bool",
          "name": "approved",
          "type": "bool"
        }
      ],
      "name": "setApprovalForAll",
      "outputs": [],
      "stateMutability": "nonpayable",
      "type": "function"
    },
    {
      "inputs": [
        {
          "internalType": "uint256",
          "name": "tokenId",
          "type": "uint256"
        },
        {
          "internalType": "address",
          "name": "user",
          "type": "address"
        },
        {
          "internalType": "uint64",
          "name": "expires",
          "type": "uint64"
        }
      ],
      "name": "setUser",
      "outputs": [],
      "stateMutability": "nonpayable",
      "type": "function"
    },
    {
      "inputs": [
        {
          "internalType": "bytes4",
          "name": "interfaceId",
          "type": "bytes4"
        }
      ],
      "name": "supportsInterface",
      "outputs": [
        {
          "internalType": "bool",
          "name": "",
          "type": "bool"
        }
      ],
      "stateMutability": "view",
      "type": "function"
    },
    {
      "inputs": [],
      "name": "symbol",
      "outputs": [
        {
          "internalType": "string",
          "name": "",
          "type": "string"
        }
      ],
      "stateMutability": "view",
      "type": "function"
    },
    {
      "inputs": [
        {
          "internalType": "uint256",
          "name": "tokenId",
          "type": "uint256"
        }
      ],
      "name": "tokenURI",
      "outputs": [
        {
          "internalType": "string",
          "name": "",
          "type": "string"
        }
      ],
      "stateMutability": "view",
      "type": "function"
    },
    {
      "inputs": [
        {
          "internalType": "address",
          "name": "from",
          "type": "address"
        },
        {
          "internalType": "address",
          "name": "to",
          "type": "address"
        },
        {
          "internalType": "uint256",
          "name": "tokenId",
          "type": "uint256"
        }
      ],
      "name": "transferFrom",
      "outputs": [],
      "stateMutability": "nonpayable",
      "type": "function"
    },
    {
      "inputs": [
        {
          "internalType": "uint256",
          "name": "tokenId",
          "type": "uint256"
        }
      ],
      "name": "userExpires",
      "outputs": [
        {
          "internalType": "uint256",
          "name": "",
          "type": "uint256"
        }
      ],
      "stateMutability": "view",
      "type": "function"
    },
    {
      "inputs": [
        {
          "internalType": "uint256",
          "name": "tokenId",
          "type": "uint256"
        }
      ],
      "name": "userOf",
      "outputs": [
        {
          "internalType": "address",
          "name": "",
          "type": "address"
        }
      ],
      "stateMutability": "view",
      "type": "function"
    }
  ],
  "bytecode": "0x60806040526000600855670de0b6b3a76400006009556001600a553480156200002757600080fd5b506040518060400160405280600981526020017f5a4a554361724e465400000000000000000000000000000000000000000000008152506040518060400160405280600f81526020017f5a4a554361724e465453796d626f6c000000000000000000000000000000000081525081818160009081620000a79190620003c3565b508060019081620000b99190620003c3565b5050505050604051620000cc906200013b565b620000d7906200055b565b604051809103906000f080158015620000f4573d6000803e3d6000fd5b50600760006101000a81548173ffffffffffffffffffffffffffffffffffffffff021916908373ffffffffffffffffffffffffffffffffffffffff16021790555062000592565b611638806200373a83390190565b600081519050919050565b7f4e487b7100000000000000000000000000000000000000000000000000000000600052604160045260246000fd5b7f4e487b7100000000000000000000000000000000000000000000000000000000600052602260045260246000fd5b60006002820490506001821680620001cb57607f821691505b602082108103620001e157620001e062000183565b5b50919050565b60008190508160005260206000209050919050565b60006020601f8301049050919050565b600082821b905092915050565b6000600883026200024b7fffffffffffffffffffffffffffffffffffffffffffffffffffffffffffffffff826200020c565b6200025786836200020c565b95508019841693508086168417925050509392505050565b6000819050919050565b6000819050919050565b6000620002a46200029e62000298846200026f565b62000279565b6200026f565b9050919050565b6000819050919050565b620002c08362000283565b620002d8620002cf82620002ab565b84845462000219565b825550505050565b600090565b620002ef620002e0565b620002fc818484620002b5565b505050565b5b81811015620003245762000318600082620002e5565b60018101905062000302565b5050565b601f82111562000373576200033d81620001e7565b6200034884620001fc565b8101602085101562000358578190505b620003706200036785620001fc565b83018262000301565b50505b505050565b600082821c905092915050565b6000620003986000198460080262000378565b1980831691505092915050565b6000620003b3838362000385565b9150826002028217905092915050565b620003ce8262000149565b67ffffffffffffffff811115620003ea57620003e962000154565b5b620003f68254620001b2565b6200040382828562000328565b600060209050601f8311600181146200043b576000841562000426578287015190505b620004328582620003a5565b865550620004a2565b601f1984166200044b86620001e7565b60005b8281101562000475578489015182556001820191506020850194506020810190506200044e565b8683101562000495578489015162000491601f89168262000385565b8355505b6001600288020188555050505b505050505050565b600082825260208201905092915050565b7f5a4a55546f6b656e000000000000000000000000000000000000000000000000600082015250565b6000620004f3600883620004aa565b91506200050082620004bb565b602082019050919050565b7f5a4a55546f6b656e53796d626f6c000000000000000000000000000000000000600082015250565b600062000543600e83620004aa565b915062000550826200050b565b602082019050919050565b600060408201905081810360008301526200057681620004e4565b905081810360208301526200058b8162000534565b9050919050565b61319880620005a26000396000f3fe6080604052600436106101815760003560e01c806370a08231116100d1578063b88d4fde1161008a578063c87b56dd11610064578063c87b56dd14610574578063d01af8bc146105b1578063e030565e146105e2578063e985e9c51461060b57610181565b8063b88d4fde146104d1578063c2f1f14a146104fa578063c3c705911461053757610181565b806370a08231146103dd5780638c02b38e1461041a5780638fc88c481461042457806395d89b41146104615780639ca0fc0d1461048c578063a22cb465146104a857610181565b8063341fa05d1161013e5780634732c0a9116101185780634732c0a91461030d5780635f644da91461034a5780636352211e146103755780636d3739c4146103b257610181565b8063341fa05d146102a857806342842e0e146102c6578063433b8046146102ef57610181565b806301ffc9a71461018657806306fdde03146101c3578063081812fc146101ee578063095ea7b31461022b57806323b872dd146102545780632f93b5b31461027d575b600080fd5b34801561019257600080fd5b506101ad60048036038101906101a89190612396565b610648565b6040516101ba91906123de565b60405180910390f35b3480156101cf57600080fd5b506101d86106c2565b6040516101e59190612489565b60405180910390f35b3480156101fa57600080fd5b50610215600480360381019061021091906124e1565b610754565b604051610222919061254f565b60405180910390f35b34801561023757600080fd5b50610252600480360381019061024d9190612596565b610770565b005b34801561026057600080fd5b5061027b600480360381019061027691906125d6565b610786565b005b34801561028957600080fd5b50610292610888565b60405161029f9190612638565b60405180910390f35b6102b0610892565b6040516102bd9190612711565b60405180910390f35b3480156102d257600080fd5b506102ed60048036038101906102e891906125d6565b61095e565b005b6102f761097e565b6040516103049190612711565b60405180910390f35b34801561031957600080fd5b50610334600480360381019061032f91906124e1565b610b24565b604051610341919061254f565b60405180910390f35b34801561035657600080fd5b5061035f610b7a565b60405161036c9190612638565b60405180910390f35b34801561038157600080fd5b5061039c600480360381019061039791906124e1565b610b84565b6040516103a9919061254f565b60405180910390f35b3480156103be57600080fd5b506103c7610b96565b6040516103d49190612792565b60405180910390f35b3480156103e957600080fd5b5061040460048036038101906103ff91906127ad565b610bbc565b6040516104119190612638565b60405180910390f35b610422610c76565b005b34801561043057600080fd5b5061044b600480360381019061044691906124e1565b610db1565b6040516104589190612638565b60405180910390f35b34801561046d57600080fd5b50610476610def565b6040516104839190612489565b60405180910390f35b6104a660048036038101906104a191906127da565b610e81565b005b3480156104b457600080fd5b506104cf60048036038101906104ca9190612846565b6111c0565b005b3480156104dd57600080fd5b506104f860048036038101906104f391906129bb565b6111d6565b005b34801561050657600080fd5b50610521600480360381019061051c91906124e1565b6111f3565b60405161052e919061254f565b60405180910390f35b34801561054357600080fd5b5061055e600480360381019061055991906124e1565b611278565b60405161056b919061254f565b60405180910390f35b34801561058057600080fd5b5061059b600480360381019061059691906124e1565b6112ce565b6040516105a89190612489565b60405180910390f35b6105cb60048036038101906105c691906124e1565b611337565b6040516105d9929190612a3e565b60405180910390f35b3480156105ee57600080fd5b5061060960048036038101906106049190612aa7565b611399565b005b34801561061757600080fd5b50610632600480360381019061062d9190612afa565b611473565b60405161063f91906123de565b60405180910390f35b60007fad092b5c000000000000000000000000000000000000000000000000000000007bffffffffffffffffffffffffffffffffffffffffffffffffffffffff1916827bffffffffffffffffffffffffffffffffffffffffffffffffffffffff191614806106bb57506106ba82611507565b5b9050919050565b6060600080546106d190612b69565b80601f01602080910402602001604051908101604052809291908181526020018280546106fd90612b69565b801561074a5780601f1061071f5761010080835404028352916020019161074a565b820191906000526020600020905b81548152906001019060200180831161072d57829003601f168201915b5050505050905090565b600061075f826115e9565b5061076982611671565b9050919050565b610782828261077d6116ae565b6116b6565b5050565b600073ffffffffffffffffffffffffffffffffffffffff168273ffffffffffffffffffffffffffffffffffffffff16036107f85760006040517f64a0ae920000000000000000000000000000000000000000000000000000000081526004016107ef919061254f565b60405180910390fd5b600061080c83836108076116ae565b6116c8565b90508373ffffffffffffffffffffffffffffffffffffffff168173ffffffffffffffffffffffffffffffffffffffff1614610882578382826040517f64283d7b00000000000000000000000000000000000000000000000000000000815260040161087993929190612b9a565b60405180910390fd5b50505050565b6000600a54905090565b6060600c60003373ffffffffffffffffffffffffffffffffffffffff1673ffffffffffffffffffffffffffffffffffffffff16815260200190815260200160002080548060200260200160405190810160405280929190818152602001828054801561091d57602002820191906000526020600020905b815481526020019060010190808311610909575b505050505090507ff2286c23d6325b206d1da8fdb767c833c8f668ca08b67440238c34558fd95e36816040516109539190612711565b60405180910390a190565b610979838383604051806020016040528060008152506111d6565b505050565b6060600060085467ffffffffffffffff81111561099e5761099d612890565b5b6040519080825280602002602001820160405280156109cc5781602001602082028036833780820191505090505b5090506000805b600854811015610a3d5742600b6000838152602001908152602001600020600201541015610a2a5780838381518110610a0f57610a0e612bd1565b5b6020026020010181815250508180610a2690612c2f565b9250505b8080610a3590612c2f565b9150506109d3565b5060008167ffffffffffffffff811115610a5a57610a59612890565b5b604051908082528060200260200182016040528015610a885781602001602082028036833780820191505090505b50905060005b82811015610ae357838181518110610aa957610aa8612bd1565b5b6020026020010151828281518110610ac457610ac3612bd1565b5b6020026020010181815250508080610adb90612c2f565b915050610a8e565b507f9615ee5d08fc64f6deb37987478c6c369f34be66986d412a4bd8b0bae8e1d36281604051610b139190612711565b60405180910390a180935050505090565b60006008548210610b6a576040517f08c379a0000000000000000000000000000000000000000000000000000000008152600401610b6190612cc3565b60405180910390fd5b610b73826111f3565b9050919050565b6000600954905090565b6000610b8f826115e9565b9050919050565b600760009054906101000a900473ffffffffffffffffffffffffffffffffffffffff1681565b60008073ffffffffffffffffffffffffffffffffffffffff168273ffffffffffffffffffffffffffffffffffffffff1603610c2f5760006040517f89c62b64000000000000000000000000000000000000000000000000000000008152600401610c26919061254f565b60405180910390fd5b600360008373ffffffffffffffffffffffffffffffffffffffff1673ffffffffffffffffffffffffffffffffffffffff168152602001908152602001600020549050919050565b610c82336008546118e2565b33600b6000600854815260200190815260200160002060000160006101000a81548173ffffffffffffffffffffffffffffffffffffffff021916908373ffffffffffffffffffffffffffffffffffffffff16021790555042600b6000600854815260200190815260200160002060020181905550600c60003373ffffffffffffffffffffffffffffffffffffffff1673ffffffffffffffffffffffffffffffffffffffff16815260200190815260200160002060085490806001815401808255809150506001900390600052602060002001600090919091909150557f20cc62645092768d0cdd45a63e9dfc1b16727585b0fac3e94c3ac14b22501e79600854604051610d8f9190612638565b60405180910390a160086000815480929190610daa90612c2f565b9190505550565b60006006600083815260200190815260200160002060000160149054906101000a900467ffffffffffffffff1667ffffffffffffffff169050919050565b606060018054610dfe90612b69565b80601f0160208091040260200160405190810160405280929190818152602001828054610e2a90612b69565b8015610e775780601f10610e4c57610100808354040283529160200191610e77565b820191906000526020600020905b815481529060010190602001808311610e5a57829003601f168201915b5050505050905090565b6000600a5482610e919190612ce3565b90506000610e1083610ea39190612ce3565b42610eae9190612d25565b90506008548410610ef4576040517f08c379a0000000000000000000000000000000000000000000000000000000008152600401610eeb90612da5565b60405180910390fd5b42600b60008681526020019081526020016000206002015410610f4c576040517f08c379a0000000000000000000000000000000000000000000000000000000008152600401610f4390612e11565b60405180910390fd5b81600760009054906101000a900473ffffffffffffffffffffffffffffffffffffffff1673ffffffffffffffffffffffffffffffffffffffff166370a08231336040518263ffffffff1660e01b8152600401610fa8919061254f565b602060405180830381865afa158015610fc5573d6000803e3d6000fd5b505050506040513d601f19601f82011682018060405250810190610fe99190612e46565b11611029576040517f08c379a000000000000000000000000000000000000000000000000000000000815260040161102090612ebf565b60405180910390fd5b33600b600086815260200190815260200160002060010160006101000a81548173ffffffffffffffffffffffffffffffffffffffff021916908373ffffffffffffffffffffffffffffffffffffffff16021790555080600b6000868152602001908152602001600020600201819055506110a4843383611399565b600760009054906101000a900473ffffffffffffffffffffffffffffffffffffffff1673ffffffffffffffffffffffffffffffffffffffff166323b872dd33600b600088815260200190815260200160002060000160009054906101000a900473ffffffffffffffffffffffffffffffffffffffff16856040518463ffffffff1660e01b815260040161113993929190612edf565b6020604051808303816000875af1158015611158573d6000803e3d6000fd5b505050506040513d601f19601f8201168201806040525081019061117c9190612f2b565b507f3639b3e5763bc2cd5a8b9d299191268e74f601a485259f0209708df7b28be849843342846040516111b29493929190612f58565b60405180910390a150505050565b6111d26111cb6116ae565b83836119db565b5050565b6111e1848484610786565b6111ed84848484611b4a565b50505050565b6000426006600084815260200190815260200160002060000160149054906101000a900467ffffffffffffffff1667ffffffffffffffff161061126e576006600083815260200190815260200160002060000160009054906101000a900473ffffffffffffffffffffffffffffffffffffffff169050611273565b600090505b919050565b600060085482106112be576040517f08c379a00000000000000000000000000000000000000000000000000000000081526004016112b590612cc3565b60405180910390fd5b6112c782610b84565b9050919050565b60606112d9826115e9565b5060006112e4611d01565b90506000815111611304576040518060200160405280600081525061132f565b8061130e84611d18565b60405160200161131f929190612fd9565b6040516020818303038152906040525b915050919050565b600080600854831061137e576040517f08c379a000000000000000000000000000000000000000000000000000000000815260040161137590612da5565b60405180910390fd5b61138783610b84565b9150611392836111f3565b9050915091565b6000600660008581526020019081526020016000209050828160000160006101000a81548173ffffffffffffffffffffffffffffffffffffffff021916908373ffffffffffffffffffffffffffffffffffffffff160217905550818160000160146101000a81548167ffffffffffffffff021916908367ffffffffffffffff1602179055508273ffffffffffffffffffffffffffffffffffffffff16847f4e06b4e7000e659094299b3533b47b6aa8ad048e95e872d23d1f4ee55af89cfe84604051611465919061300c565b60405180910390a350505050565b6000600560008473ffffffffffffffffffffffffffffffffffffffff1673ffffffffffffffffffffffffffffffffffffffff16815260200190815260200160002060008373ffffffffffffffffffffffffffffffffffffffff1673ffffffffffffffffffffffffffffffffffffffff16815260200190815260200160002060009054906101000a900460ff16905092915050565b60007f80ac58cd000000000000000000000000000000000000000000000000000000007bffffffffffffffffffffffffffffffffffffffffffffffffffffffff1916827bffffffffffffffffffffffffffffffffffffffffffffffffffffffff191614806115d257507f5b5e139f000000000000000000000000000000000000000000000000000000007bffffffffffffffffffffffffffffffffffffffffffffffffffffffff1916827bffffffffffffffffffffffffffffffffffffffffffffffffffffffff1916145b806115e257506115e182611de6565b5b9050919050565b6000806115f583611e50565b9050600073ffffffffffffffffffffffffffffffffffffffff168173ffffffffffffffffffffffffffffffffffffffff160361166857826040517f7e27328900000000000000000000000000000000000000000000000000000000815260040161165f9190612638565b60405180910390fd5b80915050919050565b60006004600083815260200190815260200160002060009054906101000a900473ffffffffffffffffffffffffffffffffffffffff169050919050565b600033905090565b6116c38383836001611e8d565b505050565b6000806116d484611e50565b9050600073ffffffffffffffffffffffffffffffffffffffff168373ffffffffffffffffffffffffffffffffffffffff161461171657611715818486612052565b5b600073ffffffffffffffffffffffffffffffffffffffff168173ffffffffffffffffffffffffffffffffffffffff16146117a757611758600085600080611e8d565b6001600360008373ffffffffffffffffffffffffffffffffffffffff1673ffffffffffffffffffffffffffffffffffffffff168152602001908152602001600020600082825403925050819055505b600073ffffffffffffffffffffffffffffffffffffffff168573ffffffffffffffffffffffffffffffffffffffff161461182a576001600360008773ffffffffffffffffffffffffffffffffffffffff1673ffffffffffffffffffffffffffffffffffffffff168152602001908152602001600020600082825401925050819055505b846002600086815260200190815260200160002060006101000a81548173ffffffffffffffffffffffffffffffffffffffff021916908373ffffffffffffffffffffffffffffffffffffffff160217905550838573ffffffffffffffffffffffffffffffffffffffff168273ffffffffffffffffffffffffffffffffffffffff167fddf252ad1be2c89b69c2b068fc378daa952ba7f163c4a11628f55a4df523b3ef60405160405180910390a4809150509392505050565b600073ffffffffffffffffffffffffffffffffffffffff168273ffffffffffffffffffffffffffffffffffffffff16036119545760006040517f64a0ae9200000000000000000000000000000000000000000000000000000000815260040161194b919061254f565b60405180910390fd5b6000611962838360006116c8565b9050600073ffffffffffffffffffffffffffffffffffffffff168173ffffffffffffffffffffffffffffffffffffffff16146119d65760006040517f73c6ac6e0000000000000000000000000000000000000000000000000000000081526004016119cd919061254f565b60405180910390fd5b505050565b600073ffffffffffffffffffffffffffffffffffffffff168273ffffffffffffffffffffffffffffffffffffffff1603611a4c57816040517f5b08ba18000000000000000000000000000000000000000000000000000000008152600401611a43919061254f565b60405180910390fd5b80600560008573ffffffffffffffffffffffffffffffffffffffff1673ffffffffffffffffffffffffffffffffffffffff16815260200190815260200160002060008473ffffffffffffffffffffffffffffffffffffffff1673ffffffffffffffffffffffffffffffffffffffff16815260200190815260200160002060006101000a81548160ff0219169083151502179055508173ffffffffffffffffffffffffffffffffffffffff168373ffffffffffffffffffffffffffffffffffffffff167f17307eab39ab6107e8899845ad3d59bd9653f200f220920489ca2b5937696c3183604051611b3d91906123de565b60405180910390a3505050565b60008373ffffffffffffffffffffffffffffffffffffffff163b1115611cfb578273ffffffffffffffffffffffffffffffffffffffff1663150b7a02611b8e6116ae565b8685856040518563ffffffff1660e01b8152600401611bb0949392919061307c565b6020604051808303816000875af1925050508015611bec57506040513d601f19601f82011682018060405250810190611be991906130dd565b60015b611c70573d8060008114611c1c576040519150601f19603f3d011682016040523d82523d6000602084013e611c21565b606091505b506000815103611c6857836040517f64a0ae92000000000000000000000000000000000000000000000000000000008152600401611c5f919061254f565b60405180910390fd5b805181602001fd5b63150b7a0260e01b7bffffffffffffffffffffffffffffffffffffffffffffffffffffffff1916817bffffffffffffffffffffffffffffffffffffffffffffffffffffffff191614611cf957836040517f64a0ae92000000000000000000000000000000000000000000000000000000008152600401611cf0919061254f565b60405180910390fd5b505b50505050565b606060405180602001604052806000815250905090565b606060006001611d2784612116565b01905060008167ffffffffffffffff811115611d4657611d45612890565b5b6040519080825280601f01601f191660200182016040528015611d785781602001600182028036833780820191505090505b509050600082602001820190505b600115611ddb578080600190039150507f3031323334353637383961626364656600000000000000000000000000000000600a86061a8153600a8581611dcf57611dce61310a565b5b04945060008503611d86575b819350505050919050565b60007f01ffc9a7000000000000000000000000000000000000000000000000000000007bffffffffffffffffffffffffffffffffffffffffffffffffffffffff1916827bffffffffffffffffffffffffffffffffffffffffffffffffffffffff1916149050919050565b60006002600083815260200190815260200160002060009054906101000a900473ffffffffffffffffffffffffffffffffffffffff169050919050565b8080611ec65750600073ffffffffffffffffffffffffffffffffffffffff168273ffffffffffffffffffffffffffffffffffffffff1614155b15611ffa576000611ed6846115e9565b9050600073ffffffffffffffffffffffffffffffffffffffff168373ffffffffffffffffffffffffffffffffffffffff1614158015611f4157508273ffffffffffffffffffffffffffffffffffffffff168173ffffffffffffffffffffffffffffffffffffffff1614155b8015611f545750611f528184611473565b155b15611f9657826040517fa9fbf51f000000000000000000000000000000000000000000000000000000008152600401611f8d919061254f565b60405180910390fd5b8115611ff857838573ffffffffffffffffffffffffffffffffffffffff168273ffffffffffffffffffffffffffffffffffffffff167f8c5be1e5ebec7d5bd14f71427d1e84f3dd0314c0f7b2291e5b200ac8c7c3b92560405160405180910390a45b505b836004600085815260200190815260200160002060006101000a81548173ffffffffffffffffffffffffffffffffffffffff021916908373ffffffffffffffffffffffffffffffffffffffff16021790555050505050565b61205d838383612269565b61211157600073ffffffffffffffffffffffffffffffffffffffff168373ffffffffffffffffffffffffffffffffffffffff16036120d257806040517f7e2732890000000000000000000000000000000000000000000000000000000081526004016120c99190612638565b60405180910390fd5b81816040517f177e802f000000000000000000000000000000000000000000000000000000008152600401612108929190613139565b60405180910390fd5b505050565b600080600090507a184f03e93ff9f4daa797ed6e38ed64bf6a1f0100000000000000008310612174577a184f03e93ff9f4daa797ed6e38ed64bf6a1f010000000000000000838161216a5761216961310a565b5b0492506040810190505b6d04ee2d6d415b85acef810000000083106121b1576d04ee2d6d415b85acef810000000083816121a7576121a661310a565b5b0492506020810190505b662386f26fc1000083106121e057662386f26fc1000083816121d6576121d561310a565b5b0492506010810190505b6305f5e1008310612209576305f5e10083816121ff576121fe61310a565b5b0492506008810190505b612710831061222e5761271083816122245761222361310a565b5b0492506004810190505b6064831061225157606483816122475761224661310a565b5b0492506002810190505b600a8310612260576001810190505b80915050919050565b60008073ffffffffffffffffffffffffffffffffffffffff168373ffffffffffffffffffffffffffffffffffffffff161415801561232157508273ffffffffffffffffffffffffffffffffffffffff168473ffffffffffffffffffffffffffffffffffffffff1614806122e257506122e18484611473565b5b8061232057508273ffffffffffffffffffffffffffffffffffffffff1661230883611671565b73ffffffffffffffffffffffffffffffffffffffff16145b5b90509392505050565b6000604051905090565b600080fd5b600080fd5b60007fffffffff0000000000000000000000000000000000000000000000000000000082169050919050565b6123738161233e565b811461237e57600080fd5b50565b6000813590506123908161236a565b92915050565b6000602082840312156123ac576123ab612334565b5b60006123ba84828501612381565b91505092915050565b60008115159050919050565b6123d8816123c3565b82525050565b60006020820190506123f360008301846123cf565b92915050565b600081519050919050565b600082825260208201905092915050565b60005b83811015612433578082015181840152602081019050612418565b60008484015250505050565b6000601f19601f8301169050919050565b600061245b826123f9565b6124658185612404565b9350612475818560208601612415565b61247e8161243f565b840191505092915050565b600060208201905081810360008301526124a38184612450565b905092915050565b6000819050919050565b6124be816124ab565b81146124c957600080fd5b50565b6000813590506124db816124b5565b92915050565b6000602082840312156124f7576124f6612334565b5b6000612505848285016124cc565b91505092915050565b600073ffffffffffffffffffffffffffffffffffffffff82169050919050565b60006125398261250e565b9050919050565b6125498161252e565b82525050565b60006020820190506125646000830184612540565b92915050565b6125738161252e565b811461257e57600080fd5b50565b6000813590506125908161256a565b92915050565b600080604083850312156125ad576125ac612334565b5b60006125bb85828601612581565b92505060206125cc858286016124cc565b9150509250929050565b6000806000606084860312156125ef576125ee612334565b5b60006125fd86828701612581565b935050602061260e86828701612581565b925050604061261f868287016124cc565b9150509250925092565b612632816124ab565b82525050565b600060208201905061264d6000830184612629565b92915050565b600081519050919050565b600082825260208201905092915050565b6000819050602082019050919050565b612688816124ab565b82525050565b600061269a838361267f565b60208301905092915050565b6000602082019050919050565b60006126be82612653565b6126c8818561265e565b93506126d38361266f565b8060005b838110156127045781516126eb888261268e565b97506126f6836126a6565b9250506001810190506126d7565b5085935050505092915050565b6000602082019050818103600083015261272b81846126b3565b905092915050565b6000819050919050565b600061275861275361274e8461250e565b612733565b61250e565b9050919050565b600061276a8261273d565b9050919050565b600061277c8261275f565b9050919050565b61278c81612771565b82525050565b60006020820190506127a76000830184612783565b92915050565b6000602082840312156127c3576127c2612334565b5b60006127d184828501612581565b91505092915050565b600080604083850312156127f1576127f0612334565b5b60006127ff858286016124cc565b9250506020612810858286016124cc565b9150509250929050565b612823816123c3565b811461282e57600080fd5b50565b6000813590506128408161281a565b92915050565b6000806040838503121561285d5761285c612334565b5b600061286b85828601612581565b925050602061287c85828601612831565b9150509250929050565b600080fd5b600080fd5b7f4e487b7100000000000000000000000000000000000000000000000000000000600052604160045260246000fd5b6128c88261243f565b810181811067ffffffffffffffff821117156128e7576128e6612890565b5b80604052505050565b60006128fa61232a565b905061290682826128bf565b919050565b600067ffffffffffffffff82111561292657612925612890565b5b61292f8261243f565b9050602081019050919050565b82818337600083830152505050565b600061295e6129598461290b565b6128f0565b90508281526020810184848401111561297a5761297961288b565b5b61298584828561293c565b509392505050565b600082601f8301126129a2576129a1612886565b5b81356129b284826020860161294b565b91505092915050565b600080600080608085870312156129d5576129d4612334565b5b60006129e387828801612581565b94505060206129f487828801612581565b9350506040612a05878288016124cc565b925050606085013567ffffffffffffffff811115612a2657612a25612339565b5b612a328782880161298d565b91505092959194509250565b6000604082019050612a536000830185612540565b612a606020830184612540565b9392505050565b600067ffffffffffffffff82169050919050565b612a8481612a67565b8114612a8f57600080fd5b50565b600081359050612aa181612a7b565b92915050565b600080600060608486031215612ac057612abf612334565b5b6000612ace868287016124cc565b9350506020612adf86828701612581565b9250506040612af086828701612a92565b9150509250925092565b60008060408385031215612b1157612b10612334565b5b6000612b1f85828601612581565b9250506020612b3085828601612581565b9150509250929050565b7f4e487b7100000000000000000000000000000000000000000000000000000000600052602260045260246000fd5b60006002820490506001821680612b8157607f821691505b602082108103612b9457612b93612b3a565b5b50919050565b6000606082019050612baf6000830186612540565b612bbc6020830185612629565b612bc96040830184612540565b949350505050565b7f4e487b7100000000000000000000000000000000000000000000000000000000600052603260045260246000fd5b7f4e487b7100000000000000000000000000000000000000000000000000000000600052601160045260246000fd5b6000612c3a826124ab565b91507fffffffffffffffffffffffffffffffffffffffffffffffffffffffffffffffff8203612c6c57612c6b612c00565b5b600182019050919050565b7f546869732063617220646f65736e277420657869737400000000000000000000600082015250565b6000612cad601683612404565b9150612cb882612c77565b602082019050919050565b60006020820190508181036000830152612cdc81612ca0565b9050919050565b6000612cee826124ab565b9150612cf9836124ab565b9250828202612d07816124ab565b91508282048414831517612d1e57612d1d612c00565b5b5092915050565b6000612d30826124ab565b9150612d3b836124ab565b9250828201905080821115612d5357612d52612c00565b5b92915050565b7f546869732063617220646f65736e27742065786973742e000000000000000000600082015250565b6000612d8f601783612404565b9150612d9a82612d59565b602082019050919050565b60006020820190508181036000830152612dbe81612d82565b9050919050565b7f546869732063617220686173206265656e2072656e7465640000000000000000600082015250565b6000612dfb601883612404565b9150612e0682612dc5565b602082019050919050565b60006020820190508181036000830152612e2a81612dee565b9050919050565b600081519050612e40816124b5565b92915050565b600060208284031215612e5c57612e5b612334565b5b6000612e6a84828501612e31565b91505092915050565b7f596f7520646f6e2774206861766520656e6f75676820706f696e74732e000000600082015250565b6000612ea9601d83612404565b9150612eb482612e73565b602082019050919050565b60006020820190508181036000830152612ed881612e9c565b9050919050565b6000606082019050612ef46000830186612540565b612f016020830185612540565b612f0e6040830184612629565b949350505050565b600081519050612f258161281a565b92915050565b600060208284031215612f4157612f40612334565b5b6000612f4f84828501612f16565b91505092915050565b6000608082019050612f6d6000830187612629565b612f7a6020830186612540565b612f876040830185612629565b612f946060830184612629565b95945050505050565b600081905092915050565b6000612fb3826123f9565b612fbd8185612f9d565b9350612fcd818560208601612415565b80840191505092915050565b6000612fe58285612fa8565b9150612ff18284612fa8565b91508190509392505050565b61300681612a67565b82525050565b60006020820190506130216000830184612ffd565b92915050565b600081519050919050565b600082825260208201905092915050565b600061304e82613027565b6130588185613032565b9350613068818560208601612415565b6130718161243f565b840191505092915050565b60006080820190506130916000830187612540565b61309e6020830186612540565b6130ab6040830185612629565b81810360608301526130bd8184613043565b905095945050505050565b6000815190506130d78161236a565b92915050565b6000602082840312156130f3576130f2612334565b5b6000613101848285016130c8565b91505092915050565b7f4e487b7100000000000000000000000000000000000000000000000000000000600052601260045260246000fd5b600060408201905061314e6000830185612540565b61315b6020830184612629565b939250505056fea2646970667358221220bac4f876ae52a0b2ee41bbd750362018a45b8bbbfc82050635b364ac3216b9e564736f6c6343000814003360806040523480156200001157600080fd5b5060405162001638380380620016388339818101604052810190620000379190620001fa565b818181600390816200004a9190620004ca565b5080600490816200005c9190620004ca565b5050505050620005b1565b6000604051905090565b600080fd5b600080fd5b600080fd5b600080fd5b6000601f19601f8301169050919050565b7f4e487b7100000000000000000000000000000000000000000000000000000000600052604160045260246000fd5b620000d08262000085565b810181811067ffffffffffffffff82111715620000f257620000f162000096565b5b80604052505050565b60006200010762000067565b9050620001158282620000c5565b919050565b600067ffffffffffffffff82111562000138576200013762000096565b5b620001438262000085565b9050602081019050919050565b60005b838110156200017057808201518184015260208101905062000153565b60008484015250505050565b6000620001936200018d846200011a565b620000fb565b905082815260208101848484011115620001b257620001b162000080565b5b620001bf84828562000150565b509392505050565b600082601f830112620001df57620001de6200007b565b5b8151620001f18482602086016200017c565b91505092915050565b6000806040838503121562000214576200021362000071565b5b600083015167ffffffffffffffff81111562000235576200023462000076565b5b6200024385828601620001c7565b925050602083015167ffffffffffffffff81111562000267576200026662000076565b5b6200027585828601620001c7565b9150509250929050565b600081519050919050565b7f4e487b7100000000000000000000000000000000000000000000000000000000600052602260045260246000fd5b60006002820490506001821680620002d257607f821691505b602082108103620002e857620002e76200028a565b5b50919050565b60008190508160005260206000209050919050565b60006020601f8301049050919050565b600082821b905092915050565b600060088302620003527fffffffffffffffffffffffffffffffffffffffffffffffffffffffffffffffff8262000313565b6200035e868362000313565b95508019841693508086168417925050509392505050565b6000819050919050565b6000819050919050565b6000620003ab620003a56200039f8462000376565b62000380565b62000376565b9050919050565b6000819050919050565b620003c7836200038a565b620003df620003d682620003b2565b84845462000320565b825550505050565b600090565b620003f6620003e7565b62000403818484620003bc565b505050565b5b818110156200042b576200041f600082620003ec565b60018101905062000409565b5050565b601f8211156200047a576200044481620002ee565b6200044f8462000303565b810160208510156200045f578190505b620004776200046e8562000303565b83018262000408565b50505b505050565b600082821c905092915050565b60006200049f600019846008026200047f565b1980831691505092915050565b6000620004ba83836200048c565b9150826002028217905092915050565b620004d5826200027f565b67ffffffffffffffff811115620004f157620004f062000096565b5b620004fd8254620002b9565b6200050a8282856200042f565b600060209050601f8311600181146200054257600084156200052d578287015190505b620005398582620004ac565b865550620005a9565b601f1984166200055286620002ee565b60005b828110156200057c5784890151825560018201915060208501945060208101905062000555565b868310156200059c578489015162000598601f8916826200048c565b8355505b6001600288020188555050505b505050505050565b61107780620005c16000396000f3fe608060405234801561001057600080fd5b506004361061009e5760003560e01c80633884d635116100665780633884d6351461015d57806370a082311461016757806395d89b4114610197578063a9059cbb146101b5578063dd62ed3e146101e55761009e565b806306fdde03146100a3578063095ea7b3146100c157806318160ddd146100f157806323b872dd1461010f578063313ce5671461013f575b600080fd5b6100ab610215565b6040516100b89190610c39565b60405180910390f35b6100db60048036038101906100d69190610cf4565b6102a7565b6040516100e89190610d4f565b60405180910390f35b6100f96102ca565b6040516101069190610d79565b60405180910390f35b61012960048036038101906101249190610d94565b6102d4565b6040516101369190610d4f565b60405180910390f35b610147610303565b6040516101549190610e03565b60405180910390f35b61016561030c565b005b610181600480360381019061017c9190610e1e565b610405565b60405161018e9190610d79565b60405180910390f35b61019f61044d565b6040516101ac9190610c39565b60405180910390f35b6101cf60048036038101906101ca9190610cf4565b6104df565b6040516101dc9190610d4f565b60405180910390f35b6101ff60048036038101906101fa9190610e4b565b610502565b60405161020c9190610d79565b60405180910390f35b60606003805461022490610eba565b80601f016020809104026020016040519081016040528092919081815260200182805461025090610eba565b801561029d5780601f106102725761010080835404028352916020019161029d565b820191906000526020600020905b81548152906001019060200180831161028057829003601f168201915b5050505050905090565b6000806102b2610589565b90506102bf818585610591565b600191505092915050565b6000600254905090565b6000806102df610589565b90506102ec8582856105a3565b6102f7858585610637565b60019150509392505050565b60006012905090565b60001515600560003373ffffffffffffffffffffffffffffffffffffffff1673ffffffffffffffffffffffffffffffffffffffff16815260200190815260200160002060009054906101000a900460ff1615151461039f576040517f08c379a000000000000000000000000000000000000000000000000000000000815260040161039690610f5d565b60405180910390fd5b6103ab3361138861072b565b6001600560003373ffffffffffffffffffffffffffffffffffffffff1673ffffffffffffffffffffffffffffffffffffffff16815260200190815260200160002060006101000a81548160ff021916908315150217905550565b60008060008373ffffffffffffffffffffffffffffffffffffffff1673ffffffffffffffffffffffffffffffffffffffff168152602001908152602001600020549050919050565b60606004805461045c90610eba565b80601f016020809104026020016040519081016040528092919081815260200182805461048890610eba565b80156104d55780601f106104aa576101008083540402835291602001916104d5565b820191906000526020600020905b8154815290600101906020018083116104b857829003601f168201915b5050505050905090565b6000806104ea610589565b90506104f7818585610637565b600191505092915050565b6000600160008473ffffffffffffffffffffffffffffffffffffffff1673ffffffffffffffffffffffffffffffffffffffff16815260200190815260200160002060008373ffffffffffffffffffffffffffffffffffffffff1673ffffffffffffffffffffffffffffffffffffffff16815260200190815260200160002054905092915050565b600033905090565b61059e83838360016107ad565b505050565b60006105af8484610502565b90507fffffffffffffffffffffffffffffffffffffffffffffffffffffffffffffffff81146106315781811015610621578281836040517ffb8f41b200000000000000000000000000000000000000000000000000000000815260040161061893929190610f8c565b60405180910390fd5b610630848484840360006107ad565b5b50505050565b600073ffffffffffffffffffffffffffffffffffffffff168373ffffffffffffffffffffffffffffffffffffffff16036106a95760006040517f96c6fd1e0000000000000000000000000000000000000000000000000000000081526004016106a09190610fc3565b60405180910390fd5b600073ffffffffffffffffffffffffffffffffffffffff168273ffffffffffffffffffffffffffffffffffffffff160361071b5760006040517fec442f050000000000000000000000000000000000000000000000000000000081526004016107129190610fc3565b60405180910390fd5b610726838383610984565b505050565b600073ffffffffffffffffffffffffffffffffffffffff168273ffffffffffffffffffffffffffffffffffffffff160361079d5760006040517fec442f050000000000000000000000000000000000000000000000000000000081526004016107949190610fc3565b60405180910390fd5b6107a960008383610984565b5050565b600073ffffffffffffffffffffffffffffffffffffffff168473ffffffffffffffffffffffffffffffffffffffff160361081f5760006040517fe602df050000000000000000000000000000000000000000000000000000000081526004016108169190610fc3565b60405180910390fd5b600073ffffffffffffffffffffffffffffffffffffffff168373ffffffffffffffffffffffffffffffffffffffff16036108915760006040517f94280d620000000000000000000000000000000000000000000000000000000081526004016108889190610fc3565b60405180910390fd5b81600160008673ffffffffffffffffffffffffffffffffffffffff1673ffffffffffffffffffffffffffffffffffffffff16815260200190815260200160002060008573ffffffffffffffffffffffffffffffffffffffff1673ffffffffffffffffffffffffffffffffffffffff16815260200190815260200160002081905550801561097e578273ffffffffffffffffffffffffffffffffffffffff168473ffffffffffffffffffffffffffffffffffffffff167f8c5be1e5ebec7d5bd14f71427d1e84f3dd0314c0f7b2291e5b200ac8c7c3b925846040516109759190610d79565b60405180910390a35b50505050565b600073ffffffffffffffffffffffffffffffffffffffff168373ffffffffffffffffffffffffffffffffffffffff16036109d65780600260008282546109ca919061100d565b92505081905550610aa9565b60008060008573ffffffffffffffffffffffffffffffffffffffff1673ffffffffffffffffffffffffffffffffffffffff16815260200190815260200160002054905081811015610a62578381836040517fe450d38c000000000000000000000000000000000000000000000000000000008152600401610a5993929190610f8c565b60405180910390fd5b8181036000808673ffffffffffffffffffffffffffffffffffffffff1673ffffffffffffffffffffffffffffffffffffffff16815260200190815260200160002081905550505b600073ffffffffffffffffffffffffffffffffffffffff168273ffffffffffffffffffffffffffffffffffffffff1603610af25780600260008282540392505081905550610b3f565b806000808473ffffffffffffffffffffffffffffffffffffffff1673ffffffffffffffffffffffffffffffffffffffff168152602001908152602001600020600082825401925050819055505b8173ffffffffffffffffffffffffffffffffffffffff168373ffffffffffffffffffffffffffffffffffffffff167fddf252ad1be2c89b69c2b068fc378daa952ba7f163c4a11628f55a4df523b3ef83604051610b9c9190610d79565b60405180910390a3505050565b600081519050919050565b600082825260208201905092915050565b60005b83811015610be3578082015181840152602081019050610bc8565b60008484015250505050565b6000601f19601f8301169050919050565b6000610c0b82610ba9565b610c158185610bb4565b9350610c25818560208601610bc5565b610c2e81610bef565b840191505092915050565b60006020820190508181036000830152610c538184610c00565b905092915050565b600080fd5b600073ffffffffffffffffffffffffffffffffffffffff82169050919050565b6000610c8b82610c60565b9050919050565b610c9b81610c80565b8114610ca657600080fd5b50565b600081359050610cb881610c92565b92915050565b6000819050919050565b610cd181610cbe565b8114610cdc57600080fd5b50565b600081359050610cee81610cc8565b92915050565b60008060408385031215610d0b57610d0a610c5b565b5b6000610d1985828601610ca9565b9250506020610d2a85828601610cdf565b9150509250929050565b60008115159050919050565b610d4981610d34565b82525050565b6000602082019050610d646000830184610d40565b92915050565b610d7381610cbe565b82525050565b6000602082019050610d8e6000830184610d6a565b92915050565b600080600060608486031215610dad57610dac610c5b565b5b6000610dbb86828701610ca9565b9350506020610dcc86828701610ca9565b9250506040610ddd86828701610cdf565b9150509250925092565b600060ff82169050919050565b610dfd81610de7565b82525050565b6000602082019050610e186000830184610df4565b92915050565b600060208284031215610e3457610e33610c5b565b5b6000610e4284828501610ca9565b91505092915050565b60008060408385031215610e6257610e61610c5b565b5b6000610e7085828601610ca9565b9250506020610e8185828601610ca9565b9150509250929050565b7f4e487b7100000000000000000000000000000000000000000000000000000000600052602260045260246000fd5b60006002820490506001821680610ed257607f821691505b602082108103610ee557610ee4610e8b565b5b50919050565b7f5468697320757365722068617320636c61696d65642061697264726f7020616c60008201527f7265616479000000000000000000000000000000000000000000000000000000602082015250565b6000610f47602583610bb4565b9150610f5282610eeb565b604082019050919050565b60006020820190508181036000830152610f7681610f3a565b9050919050565b610f8681610c80565b82525050565b6000606082019050610fa16000830186610f7d565b610fae6020830185610d6a565b610fbb6040830184610d6a565b949350505050565b6000602082019050610fd86000830184610f7d565b92915050565b7f4e487b7100000000000000000000000000000000000000000000000000000000600052601160045260246000fd5b600061101882610cbe565b915061102383610cbe565b925082820190508082111561103b5761103a610fde565b5b9291505056fea26469706673582212207ba7f0eab6a6a375846b3b299dbec07f46d541744663e0bb6e62e89af8fe0f9464736f6c63430008140033",
  "linkReferences": {},
  "deployedLinkReferences": {}
}